:020000041000EA
:1000000000B5324B212058609868022188439860DF
:10001000D860186158612E4B002199600221596106
:100020000121F02299502B49196001219960352056
:1000300000F044F80222904214D00621196600F024
:1000400034F8196E01211966002018661A6600F04E
:100050002CF8196E196E196E052000F02FF8012189
:100060000842F9D1002199601B49196000215960AB
:100070001A491B48016001219960EB211966A021F2
:10008000196600F012F800219960164914480160C1
:100090000121996001BC002800D000471248134993
:1000A000086003C880F30888084703B5996A0420EC
:1000B0000142FBD001200142F8D103BD02B5186610
:1000C0001866FFF7F2FF186E186E02BD00000240BE
:1000D000000000180000070000035F00212200005C
:1000E000F4000018222000A00001001008ED00E03C
:1000F00000000000000000000000000074B24E7A12
:1001000000200420F7010010C3010010C5010010F9
:10011000C1010010C1010010C1010010C101001097
:10012000C1010010C1010010C1010010C701001081
:10013000C1010010C1010010C9010010CB01001065
:10014000CD010010CD010010CD010010CD01001037
:10015000CD010010CD010010CD010010CD01001027
:10016000CD010010CD010010CD010010CD01001017
:10017000CD010010CD010010CD010010CD01001007
:10018000CD010010CD010010CD010010CD010010F7
:10019000CD010010CD010010CD010010CD010010E7
:1001A000CD010010CD010010CD010010CD010010D7
:1001B000CD010010CD010010CD010010CD010010C7
:1001C00000BE00BE00BE00BE00BE00BE00F04BF888
:1001D000103800BEF2EB88710C6500102865001025
:1001E0003402001090A31AE700202149086006C8D5
:1001F00081F3088810471F48006800282FD10DA4FC
:100200000ECC002902D000F012F8F9E71A491B4A77
:10021000002000E001C19142FCD1194988471949E9
:1002200088471949884700BEFDE701C901C29A42C3
:10023000FBD3704728650010C00000200408002090
:100240006C6C001000000420000004206C6C001096
:1002500000100420001004200000000070470B482C
:1002600004F092F80047EFF30580C0B27047000039
:1002700008ED00E0000000D008080020EC0C002091
:10028000ED2500104D150010DD260010575600001A
:1002900006005250ABB36053B063001006005250DA
:1002A000861C0302C0630010060052505422A29D17
:1002B000D463001005005250DE65F4686C6C0010C9
:1002C000F8B5C04606480749091A8B10C90FC91866
:1002D00010B5491003D0044B002B00D0984710BD37
:1002E000040800200408002000000000054B10B5A1
:1002F000002B03D00449054800E000BFFFF7E2FFF0
:1003000010BDC04600000000A40C0020D85E001004
:10031000194B3B20197800231A0088425A41524257
:100320001140164A10B511701549097888425B4191
:100330005B421940134B51701B78172B00D90B23CC
:100340009370114B3B241978002318008C425841BC
:1003500040420140D1710D4909788C425B415B42BA
:1003600019400B4B11721B78172B00D915235372B0
:10037000084B1B68136110BD00F01F10180C002003
:1003800004F01F1008F01F100CF01F1010F01F10C9
:1003900014F01F1000E01F10F0B557464E464546BA
:1003A000DE46E0B587B084460800190010AB1B7824
:1003B0000292984611AB1B7855279A4612AB1B78D0
:1003C00000259B465A465346140442461B021343DB
:1003D00023430A06134303932B4B202400229A5EE7
:1003E0000D2301929946294E294A019B002D27D1C0
:1003F000BB422CD095692C42FCD117603578013670
:100400000D3D6F427D413778EDB2002FEED1431E96
:1004100001240B2B06D86346013BDBB21D349C4202
:10042000A4416442062902D843463B2B15D9012436
:10043000200007B0F0BCBB46B246A946A046F0BDBE
:1004400095692C42D9D095692C42F9D1D5E79569A7
:100450002C42FCD14D461560CCE753463B2BE6D8E9
:100460005B46172BE3D8002CE2D1624604AB1A712D
:100470005871029B04AA30339371039B10000493BC
:1004800001F080F9D4E7C046E40C0020D85E0010EB
:100490000040034070B5040004284BD00421102014
:1004A00001F044FA0022284B28491A609A60DA6069
:1004B00019612749013C59601A60022C36D9254B35
:1004C0001B6853401B04244A1B0C13601E4B1A6804
:1004D00001239343214A13600022422400210D2668
:1004E0001F4B20485A75204B203200255D5F1F4B63
:1004F00000290FD1A54214D099690A42FCD11C6091
:10050000017801300D394C4261410478C9B2002CA8
:10051000EED170BD99690A42F1D099690A42F9D1C8
:10052000EDE799690A42FCD11E60E5E7104BA40093
:10053000E258C4E7102001F023FAD02380221B06E2
:1005400052025A629A61C7E700000540FFFF0000AF
:10055000007102000C0005400C1005400010054021
:10056000180C0020E85E0010E40C0020004003405E
:1005700034610010F0B54E46DE4645465746E0B5BC
:100580000421102087B001F0D1F90022794B7A497B
:100590001A609A60DA6019617849542459601A60C7
:1005A000774A0D261168FE2212024A40120475494C
:1005B000120C0A601A6801239343734A00211360E6
:1005C0002022724B7248994600255D5F714B0029CD
:1005D00075D1A5427AD099690A42FCD11C60017894
:1005E00001300D394C4261410478C9B2002CEED182
:1005F000694B002601931B69013B032B02D8674A14
:100600009B009E58FE25664B664A190003A8654C60
:1006100098462D0203F082FE0096634B9C4260DCFC
:10062000624B9C4263DC624B9C426CDC614B9C42A3
:1006300063DD0021604801F0DFFC043D2C04240C44
:100640004F4B504A1B6863401B041B0C1360009BFC
:100650009D425EDD6C1E4146220003A803F05EFE53
:100660006421200003F0C2FE0029D6D102AB1E791E
:10067000002ED2D04B4600229B5E0D279A460022C8
:10068000BB46444B574603A82031002A10D1B7423D
:1006900021D09A691142FCD11E60027801300D3AD6
:1006A000564272410678D2B2002EB6D0002AEED061
:1006B0009A691142F0D09A691142F9D1ECE799692F
:1006C0000A428BD099690A42F9D187E799690A42AF
:1006D000FCD11E607FE79A691142FCD15A461A602C
:1006E000D7E70021354801F087FC2500A8E7002165
:1006F000334801F081FC2500A2E70021314801F0D8
:100700007BFC25009CE700212F4801F075FC2500AB
:1007100096E70023019A442453754B46002120227A
:100720000D2600255D5F29481A4B002915D1A542E9
:100730001AD099690A42FCD11C60017801300D3948
:100740004C4261410478C9B2002CEED107B0F0BC34
:10075000BB46B246A946A046F0BD99690A42EBD015
:1007600099690A42F9D1E7E799690A42FCD11E600A
:10077000DFE7C04600000540FFFF000000710200F7
:100780000C0005400C10054000100540E40C002052
:10079000005F001000400340180C00204061001072
:1007A0002C610010FFFD000030F2000048EE000058
:1007B00060EA000080BB0000983A0000E09304006B
:1007C000A0860100B80B000030750000145F001017
:1007D000F0B54E46DE4645465746E0B504211020AA
:1007E00085B001F0A3F800227C4B7D491A609A6025
:1007F000DA6019617B49542459600D2600211A6082
:10080000794B7A48994600255D5F794B2032002963
:1008100000D07DE0A54200D182E099690A42FCD176
:100820001C60017801300D394C4261410478C9B235
:10083000002CECD16F4B98461B69013B032B00D970
:10084000C8E06D4A9B009D582A006C4B1B685340C2
:100850001B046B4A1B0C1360604B1A680123934303
:10086000684A1360684B9B466C1C5946220001A8DD
:1008700003F054FD6421200003F0B8FD00296ED080
:10088000624B9C425DDD624B9C4200DC9DE0614B13
:100890009C4200DD93E000215F48153501F0ACFB80
:1008A000564B574A1B686B401B041B0C1360FE23FE
:1008B0001B029D42D8DD102001F062F8D023802277
:1008C0001B0652025A625A610123424653754B4637
:1008D0004424002120220D2600255D5F4F48444B13
:1008E000002922D1A54227D099690A42FCD11C6077
:1008F000017801300D394C4261410478C9B2002CB5
:10090000EED105B0F0BCBB46B246A946A046F0BD4C
:1009100099690A4200D183E799690A42F8D17FE7D1
:1009200099690A42FCD11E6077E799690A42DED0D4
:1009300099690A42F9D1DAE799690A42FCD11E6045
:10094000D2E796200021400001F056FB2B4B2C4AA9
:100950001B68250063401B041B0C136084E76B4677
:100960001F79002F00D18BE74B460D260021002276
:100970009B5EB2469C4620221D4B01A8002911D146
:10098000BC4516D099690A42FCD11F60017801303C
:100990000D394F4279410778C9B2002F00D16FE776
:1009A0000029EDD099690A42EFD099690A42F9D13C
:1009B000EBE799690A42FCD151461960E2E7002150
:1009C000174801F019FB25006AE70021154801F0DE
:1009D00013FBBBE70022002537E7C04600000540B7
:1009E000FFFF000000710200E40C0020205F0010F7
:1009F00000400340180C0020406100100C0005402E
:100A00000C100540001005402C6100107FBB000059
:100A10005FEA000017F60000808D5B00385F001071
:100A2000E0930400B80B0000F0B5CE46474680B511
:100A3000A949D7B0040004F025FE002800D130E118
:100A40002000A64904F0D4FF002858D0202308AF86
:100A5000390020003B8005F087F8002800D1F6E13E
:100A600016AE3500002428603900002005F07CF81F
:100A70000134002800D1E7E10435092CF3D1370017
:100A80000EAD2C001C37B06804F0F0FD0436207069
:100A90000134B742F7D1AC79EB78AA786978287835
:100AA00002946C7901942C790094FFF775FC8C4BBF
:100AB00000255D5F002800D077E20021522420222B
:100AC0000D268848884B002912D1A54200D1EFE0BD
:100AD00099690A42FCD11C60017801300D394C4201
:100AE00061410478C9B2002C00D1DCE00029ECD0CF
:100AF00099690A42EFD099690A42F9D1EBE72000DF
:100B00007A4904F0BFFD002800D1C9E120007849EE
:100B100004F06EFF002800D102E10D27704E53252E
:100B20000023F25E00219046BC46202271486E4BA5
:100B3000002900D0C1E0A84500D1C6E099690A4269
:100B4000FCD11D60017801300D394D4269410578B5
:100B5000C9B2002DECD1202307AF390020003B8023
:100B600005F002F8002800D163E20EAB984600249D
:100B7000434639001860002004F0F6FF01340028D5
:100B800000D153E204239C46E044082CF0D12022FB
:100B900094460EAB08AF6344B846994610AC01CCFE
:100BA00004F064FD434601C398464C45F7D1089BC9
:100BB0007A68B9683B2B00D91EE13B2A00D91BE1BA
:100BC000172900D918E1F8680D9C0C9F3B2800D923
:100BD00012E13B2F00D90FE1172C00D90CE118913D
:100BE0008021199049014448169317921A971B9433
:100BF00005F062F980224048520016A905F044F938
:100C00003E4B3B201A78002319009042594149423B
:100C10000A403B490A703B4A8946127890425B4140
:100C20005B421A40384B4A701B78172B00D90B23B4
:100C30004A469370354B3B211A78002391425B4121
:100C40005B421A404B46DA71314B1B783B2B00D884
:100C50001D004B461D722F4B1B78172B00D91523F7
:100C60004A4653722C4B44241B6800211361002315
:100C7000F55E20220D2629481B4B002900D039E2C1
:100C8000A54200D13EE299690A42FCD11C6001787C
:100C900001300D394C4261410478C9B2002CECD1CD
:100CA00001E0FFF795FD57B0C0BCB946B046F0BDB6
:100CB00099690A42FCD11E600AE799690A4200D18B
:100CC0003FE799690A42F8D13BE799690A42FCD1AA
:100CD0006146196032E7C046485F0010505F00105F
:100CE000E40C0020805F001000400340A85F00106B
:100CF000E85F0010F45F001000F01F0000F01F100C
:100D0000180C002004F01F1008F01F100CF01F102A
:100D100010F01F1014F01F1000E01F10E05F001013
:100D20002000B54904F0AEFC002800D1FCE1200011
:100D3000B24904F05DFE002800D1B0E10D25B04EAF
:100D400053270023F25E00219046AC462022AD4896
:100D5000AD4B002900D094E1B84500D199E19969E3
:100D60000A42FCD11F60017801300D394F427941B0
:100D70000778C9B2002FECD1202308AF390020003A
:100D80003B8004F0F1FE002800D1D4E20EADA8466D
:100D90000024434639001860002004F0E5FE0134C9
:100DA000002800D1C4E204239C46E044032CF0D187
:100DB000A86804F05BFC431E0400032B00D8F0E29B
:100DC0000023F55E4224002120220D268F488E4B01
:100DD000002900D09BE1A54200D1A0E199690A4217
:100DE000FCD11C60017801300D394C42614104781E
:100DF000C9B2002CECD156E700210023F55E49244E
:100E000020220D268248804B002911D1A54216D000
:100E100099690A42FCD11C60017801300D394C42BD
:100E200061410478C9B2002C00D13CE70029EDD023
:100E300099690A42EFD099690A42F9D1EBE79969B9
:100E40000A42FCD11E60E3E7092C00D117E600211D
:100E50006B4B4E2400255D5F20220D266D486A4BAA
:100E6000002911D1A54216D099690A42FCD11C6013
:100E7000017801300D394C4261410478C9B2002C2F
:100E800000D110E70029EDD099690A42EFD09969A5
:100E90000A42F9D1EBE799690A42FCD11E60E3E707
:100EA0005224002120220D27554E5B480023F55E79
:100EB000554B002962D1A54267D099690A42FCD1FD
:100EC0001C60017801300D394C4261410478C9B28F
:100ED000002CEED1FA270EACFF00200000F0CEFC73
:100EE000BC465927A079A278604463780490607961
:100EF00016AD0390207949490290E0786F44019043
:100F000020780090280003F009FA2A78002A12D0ED
:100F100020253D4C0021735E93423BD0A3691D42C6
:100F2000FCD1226000213E48013701F065F87B1EAC
:100F30001A78002AEED100210023F55E44242022F5
:100F40000D263848304B002911D1A54228D0996987
:100F50000A42FCD11C60017801300D394C426141DC
:100F60000478C9B2002C00D19DE60029EDD0996922
:100F70000A42EFD099690A42F9D1EBE799690A422E
:100F80009ED099690A42F9D19AE799690A42FCD13F
:100F90001F6092E7A3691D42FCD10D232360BDE7CA
:100FA00099690A42FCD11E60D1E700214524202224
:100FB0000D261D48144B002911D1A54216D0996960
:100FC0000A42FCD11C60017801300D394C4261416C
:100FD0000478C9B2002C00D165E60029EDD09969EA
:100FE0000A42EFD099690A42F9D1EBE799690A42BE
:100FF000FCD11E60E3E7C046306000108060001046
:10100000E40C00209060001000400340AC60001031
:10101000186000105C5F0010B05F0010C05F00102F
:1010200010270000E05F0010905F0010082C00D136
:10103000ADE500210023F55E4E2420220D26B348A5
:10104000B34B002911D1A54216D099690A42FCD1AF
:101050001C60017801300D394C4261410478C9B2FD
:10106000002C00D11FE60029EDD099690A42EFD08B
:1010700099690A42F9D1EBE799690A42FCD11E60ED
:10108000E3E799690A4200D16CE699690A42F8D10E
:1010900068E699690A42FCD1614619605FE69C4B9B
:1010A0009A69920600D5FEE59A4A4E240025555FBE
:1010B000002120220D26984800290FD1A54214D0E6
:1010C00099690A42FCD11C60017801300D394C420B
:1010D00061410478C9B2002CEED1E4E599690A4275
:1010E000F1D099690A42F9D1EDE799690A42FCD138
:1010F0001E60E5E799690A4200D1C7E599690A428D
:10110000F8D1C3E599690A42FCD11E60BBE5996933
:101110000A4200D165E699690A42F8D161E6996907
:101120000A42FCD11E6059E64725002120220D27E6
:10113000784E7A4C0023F05E754B002900D0A5E074
:10114000A84200D1AAE099690A42FCD11D60217829
:1011500001340D394D4269412578C9B2002DECD1D9
:10116000002120220D276E4C694B5335002900D0F9
:1011700099E0854200D19EE099690A42FCD11D6048
:10118000217801340D394D4269412578C9B2002DCD
:10119000ECD1644B644999464A469B78527816A82C
:1011A000884603F0BBF86B4658229B181D78002335
:1011B000F05E002D17D00D240021A446544B16AF2D
:1011C000383A00297CD1A84200D180E099690A42CE
:1011D000FCD11D60397801370D394D4269413D78A8
:1011E000C9B2002DEDD10A2800D1D2E02021484A11
:1011F00093691942FCD10A230D2413605325002161
:101200002022A446494F424B002966D1A8426BD008
:1012100099690A42FCD11D60397801370D394D4278
:1012200069413D78C9B2002DEED14B464A465B7A02
:10123000127A414616A803F071F86B4658229B18A3
:101240001C780023F55E002C15D000210D26304BB4
:1012500016A8383A00294DD1A54252D099690A42C0
:10126000FCD11C60017801300D394C426141047899
:10127000C9B2002CEED10A2D00D182E02021244AEF
:1012800093691942FCD10A2313600CE599690A425B
:1012900000D15BE799690A42F8D157E799690A4298
:1012A000FCD11F604FE799690A4200D167E799694D
:1012B0000A42F8D163E799690A42FCD11F605BE7F3
:1012C00099690A4285D099690A42F9D181E79969F9
:1012D0000A42FCD16146196078E799690A429AD0BE
:1012E00099690A42F9D196E799690A42FCD16146A7
:1012F00019608DE799690A42B3D099690A42F9D118
:10130000AFE799690A42FCD11E60A7E75C5F001055
:1013100000400340E40C0020E06000103C6000103E
:1013200060600010180C00206C60001074600010E9
:10133000032C00D13CE50023F55E4E240021202241
:101340000D262448244B00290FD1A54214D09969B9
:101350000A42FCD11C60017801300D394C426141D8
:101360000478C9B2002CEED19DE499690A42F1D00B
:1013700099690A42F9D1EDE799690A42FCD11E60E8
:10138000E5E72021144A93691942FCD10D2313602B
:1013900074E72021104A93691942FCD10D23136090
:1013A00024E716908021FF204901400304F084FDCA
:1013B0008022FF20520016A9400304F065FD074B70
:1013C0001C611B7D002B00D16DE42000FFF762F84B
:1013D00069E4C0465C5F001000400340180C002028
:1013E00070B53C49040004F04DF9002843D02000BA
:1013F000394904F047F9002809D02000374904F0A2
:1014000041F9002863D02000FFF70EFB70BD1030BB
:1014100000F0B6FAD02380221B0652025A625A61AB
:10142000012200212E4B44245A752E4B0D260025F7
:101430005D5F2D482D4B1F32002910D1A54215D0DC
:1014400099690A42FCD11C60017801300D394C4287
:1014500061410478C9B2002CD8D00029EED0996936
:101460000A42F0D099690A42F9D1ECE799690A4237
:10147000FCD11E60E4E71A4B44241869FFF70AF810
:101480000021184B202200255D5F0D261848174BC0
:10149000002910D1A54215D099690A42FCD11C60DF
:1014A000017801300D394C4261410478C9B2002CF9
:1014B000ACD00029EED099690A42F0D099690A426D
:1014C000F9D1ECE799690A42FCD11E60E4E7FFF725
:1014D00051F89BE7F4600010006100100C610010EF
:1014E000180C0020E40C0020385F0010004003407E
:1014F000145F0010F0B5C64600B59AB001AB1149B3
:10150000114898461E00002710250F4C00F03EFBA6
:1015100000280CD0A3691D42FCD12368094933700F
:1015200009480137013600F031FB0028F2D143466B
:101530003900D8554046FFF753FF1AB080BCB84673
:10154000F0BDC0461027000000400340F0B5D6466D
:101550004F4646469621C0B57B4C82B0890120009B
:1015600000F070FA0221002000F0E0F902210120D1
:1015700000F0DCF996212000890100F0D3FAC022A6
:10158000236B12021340714A142013606023E26A35
:101590005A400E3313406E4A13601023E16A0B4029
:1015A00013606C4901F032FA0121142001F014FAA1
:1015B0005023A363626B183B1340674A04211360F6
:1015C000102000F0B3F90022644B65491A609A605C
:1015D000DA6019616349644859601A60634903F02D
:1015E0005FFF0321042000F0A1F90321052000F092
:1015F0009DF900220121042000F0B0F90022012110
:10160000052000F0ABF9FEF783FE0123584D684634
:10161000AB8200F033F96B469B781A00163A012A28
:1016200000D885E0082B00D882E02869FEF732FF59
:1016300000236B754F4B444C9A464F4B99464F4B8A
:10164000984606E06A7A9A423ED000214C4800F063
:10165000D3FC684600F012F96B46AA789B789A4250
:10166000F0D16A4651786A789142EBD16A7D002ABE
:10167000E8D0FEF77FFF002300226B7553464946F2
:101680000020185E532720230D26002A10D1B842CF
:1016900015D0A2691342FCD127600A7801310D3AB6
:1016A00057427A410F78D2B2002FCED0002AEED026
:1016B000A2691342F0D0A2691342F9D1ECE7A26902
:1016C0001342FCD12660E4E76B465A782B7A9A42A3
:1016D000BBD16E7D002EB8D1FFF77AF801230D2221
:1016E0006B75534641460020185E532720239446CD
:1016F000002E10D1B84215D0A2691342FCD1276048
:101700000A7801310D3A564272410F78D6B2002F55
:101710009BD0002EEED0A2691342F0D0A2691342F2
:10172000F9D1ECE7A2691342FCD162462260E3E7FB
:10173000102000F025F9D02380221B0652025A62A5
:101740005A61012375E7C046004003403050034012
:101750002C500340F51400103450034000000540A5
:10176000FFFF000000710200B0030020801A060095
:10177000180C0020E40C00201461001020610010FF
:1017800040420F00F0B5DE4657464E464546E0B5AE
:10179000057985B004000A21280002F04FFE0A21D5
:1017A0000701280002F04AFE65797F18FFB20A217E
:1017B0002800277102F042FE0A210601280002F0EB
:1017C0003DFEA3797618F6B218000A216671984694
:1017D00002F034FE0A210501404602F02FFEA378F4
:1017E0006D18EDB20A211800A571994602F026FE87
:1017F0000A2103014846984602F020FE4144CBB23C
:101800009846A37063780A2118009A4602F016FEE3
:101810000A2103015046994602F010FE4944CBB21A
:101820009946637023780A2118009B4602F006FE51
:101830000A21030158469A4602F000FE514402AACA
:10184000C9B251702170494600239170414613700E
:10185000D170E1780848117157719671D57168217E
:101860000093083303F046FE05B0F0BCBB46B24619
:10187000A946A046F0BDC046B0030020F0B5C6465C
:101880000F220027012300B5274D86B06A4404AE1D
:101890000400177068210093280003F02BFE32002B
:1018A000009707236821280003F08AFE3378B77871
:1018B000984673789C46F378E37043461B099A0078
:1018C00035797079B1799B1846460F225B00164036
:1018D0009B19237063461B099E009B1966465B009B
:1018E00016409B1963703B099E009B1917405B00D3
:1018F000DB19A3702B099E009B1915405B005B1937
:10190000237103099D005B1910405B001B18637174
:101910000B0998001B1800200A405B009B18A3715C
:1019200006B080BCB846F0BDB0030020094A10B52F
:1019300094464024830063441A68C00062408034A7
:1019400014408022520113431C60034B9C466044A8
:10195000416010BD04C0014000400140074B8000C1
:101960009C4660440368C90092000A435A400C2315
:101970001A4080235B0103431A60704704C0014092
:101980000123D0228340120693629361094A4021C9
:101990009446830063441A68C0004A408031114075
:1019A0008022520113431960034B9C460523604477
:1019B0004360704704C001400040014070B5EFF340
:1019C000108C72B60D4D2B68002BFCD0BFF35F8FCF
:1019D0000724CB08C618C05C01230C40A3401C00A0
:1019E0000440034207D118433070BFF35F8F2C606F
:1019F0008CF3108870BD100000F072FE2C0100D036
:101A0000024B18688007C00F7047C04600C00640F0
:101A10000021044B044ABFF35F8F02C39342FAD103
:101A20007047C046000100D0800100D0044A107801
:101A3000431CDBB2172B00D9102313707047C0462C
:101A400010030020F8B5040006200D0000F0BEFFD2
:101A5000002844D02A4B2B49E21853425A41802394
:101A6000DB039C469205284B62441A60274B1A60A0
:101A700010008B689843FBD1214B254AE31859424B
:101A80004B4180215B0049009952062000F09EFFE7
:101A90002900C00002F0D2FCC30921D14027012156
:101AA000260080256162A36200232C36AD013543F8
:101AB0002B60062000F08AFF3900800002F0BEFC97
:101AC0006022E36A53400E321A4080235B013343A5
:101AD0001A60104B236310232B600D3BA364F8BDE9
:101AE0000D4A934203D900230C4F0D49D8E77F22BA
:101AF0000240013252089F011900BF181300CFE7BE
:101B00000080FCBF00C0004000E0004000F000404A
:101B1000E40C002001030000FEFF0000C0FF3F00B6
:101B2000FFFF000070B5040006200D0000F04EFF1E
:101B30002900C00002F082FCC30906D0104A93427B
:101B400015D900230F4D104901E0402501216162A4
:101B5000A362802300222C349B0123431A600620B9
:101B600000F034FF2900800002F068FC70BD7F2285
:101B70000240013252089D011900AD181300E6E73A
:101B8000FEFF0000C0FF3F00FFFF0000074A30B526
:101B90001024956A03E0936A5B1B8B4204D8836927
:101BA0001C42F8D1012030BD0020FCE70040054078
:101BB00083680B4810B584466144624412010901F0
:101BC00059189B185C684A680120944201D802D0D9
:101BD0000020C0B210BD1A680B689A42F9D8F7E726
:101BE000FFFFFF0FF8B5574645464E46DE46E0B5C7
:101BF00099460CAB1C780DAB1B78070090469A46B3
:101C00000568002C44D1AC7B002C3BD066002968D1
:101C10003619033E89194B78AB73002B00D1EB7357
:101C200000238B704B700B702E4BE218BB681201B7
:101C30009B1842461A604A465A600A9A9A600B9A62
:101C4000DA6000238B704B700B706B7B9B46002B14
:101C500032D022005946A8686B68984700281DD0EA
:101C60005B46584629685B005B448E19033BB070A5
:101C7000CA18CB5C002B00D073705B4614706B737A
:101C80005C451AD0F0BCBB46B246A946A046F8BD9A
:101C9000660029683619033E8919C5E75B465B0073
:101CA0002A685B44033BD3189C709119925D002A0B
:101CB00000D05A705B460B706C7342464B46387DC1
:101CC00000F00AFA051E02D05346002B04D00E9BEA
:101CD000002BD7D01D70D5E72100386800F048FCF4
:101CE000F5E7C046FFFFFF0FF0B5DE464E4657460C
:101CF00045460023E0B58DB00A936B4B8200D35864
:101D00000B90994600239B464B46079300F06AF9D7
:101D1000079C06000F006268EFF3108572B6136827
:101D2000002BFCD022000794BFF35F8F2468637BF5
:101D30009946002B66D092685C4B90464B441B0141
:101D4000984443461A685B6810001900801BB9412B
:101D500000295EDD0B9800F0BFF9002300269846AD
:101D600000279A46079C6368BFF35F8F5A461A6044
:101D700085F310885346002B08D10028C6D10DB03A
:101D8000F0BCBB46B246A946A046F0BD0A9B414600
:101D900018024B461843D047089009916268EFF348
:101DA000108572B61368002BFCD00794BFF35F8FC9
:101DB0000899099A002A47DB114303D0079B1B6946
:101DC000002B5CD1079B1B68D97B002906D01A68C1
:101DD0004800411852184946033A51704A46DA738E
:101DE0004B46079A013BD168CA5C0132CA545B4634
:101DF000079A13615368BFF35F8F5A461A6085F3E1
:101E0000108883E700230026984600279A46002082
:101E1000A8E7002901D100289CD10021200000F072
:101E200029FB43461E685F689B68079A9A464346AB
:101E3000DB689846D3684B44013B1B780A931B022E
:101E40000343136100208DE72369002BBAD03300D0
:101E50003C005B1A94411A002300A74219D89F4204
:101E60001BD05946049101210391494602914146F4
:101E70000191514607980091FFF7B4FEB7E700F0D3
:101E8000B1F8089A099B06000F0092197B4199420C
:101E9000E5D901225242D317E3E79642E1D9012264
:101EA0005242D317DDE7C046BC0C0020FFFFFF0FF6
:101EB00010B5124C6368002B04D00A21104800F0C2
:101EC00099F910BD23000F4A1021206800F0EAF9AB
:101ED000032000F07BF8032000F06EF903200A498C
:101EE00000F0B4F8FFF7A2FD084B9C4603236044C2
:101EF0002375074B80006060DC60DEE71403002080
:101F0000D00C0020B11B0010E91C00104000003470
:101F1000BC0C0020F0B5D6464F464646C0B5EFF3A0
:101F200005823F23134018001038EFF3108C72B66F
:101F300020490A68002AFCD0BFF35F8F01221700F6
:101F400087401D4C1600A24667631C4C2578A046AE
:101F50002C00C4402640224209D1BFF35F8F0E609F
:101F60008CF31088E0BCBA46B146A846F0BD524694
:101F7000566A134A8400A25896420ED34246114B29
:101F8000BD43E3581570BFF35F8F00220A608CF3E6
:101F90001088002BE6D09847E4E70B4A9B00904658
:101FA00043441A681A60BFF35F8F00230B608CF301
:101FB0001088D7E7280100D000400540EB0C002036
:101FC000D40C0020080B0020D03F054010B5034B77
:101FD00001001800024AFFF7F1FC10BDE90C0020D7
:101FE00050610010034B596A0A00986A596A8A4284
:101FF000FAD170470040054070B504000D00124A48
:10200000536A1900966A536A8B42FAD1300019005C
:1020100024184D41AB4211D80ED02B000A494A6A10
:102020009A42FCD307D1084A02E0516A994202D190
:10203000916AA142F9D370BDA642EED901230124D1
:102040006442E5175B42E9E70040054070B50400D3
:102050000D00EFF3108672B61A4A1368002BFCD0FD
:10206000BFF35F8F002D1BD0200000F0C7FC164986
:1020700081420AD0200000F0C9FC0121200000F0BC
:10208000ABFC0123A340114A1360114BA400E5509F
:10209000BFF35F8F00220B4B1A6086F3108870BD70
:1020A0000121A1400A4BA200D5500A4B20001A780A
:1020B0008A4305491A7000F0D3FC0021200000F08B
:1020C0008BFCE5E7280100D0151F001038600540A3
:1020D000080B0020EB0C0020F0B54F46D6464646D4
:1020E000C0B507002F4C616A0D00A66A616AA9425B
:1020F000FAD18B4208D805D00120E0BCBA46B146DF
:10210000A846F0BDB242F7D9EFF3108A72B626485E
:1021100001680029FCD0BFF35F8F0125BD40234932
:10212000204C8846097889462943C9B28C464146E5
:1021300060460870391D890065630A511C49B80062
:102140004350216A0020294219D0616A0800A66A1A
:10215000616A8142FAD18B4219D801D1B24216D8B4
:10216000CC451DD00F4B1F221D625D6301233A40F9
:102170009340104A0120136043464A461A70BFF349
:102180005F8F0022084B1A608AF31088B5E70020A1
:10219000BFF35F8F0022044B1A608AF31088ACE70C
:1021A0000120ECE700400540280100D0EB0C0020A6
:1021B000D40C002080E200E0EFF3108C72B60A49E4
:1021C0000B68002BFCD0BFF35F8F01238340074ACD
:1021D0000748136202789A430270BFF35F8F0023AF
:1021E0000B608CF310887047280100D00040054038
:1021F000EB0C0020024B9C46614489000160704753
:102200004000003410B50400FFF710FC010020006E
:10221000FFF7F0FFFF232371BFF35F8F10BDC046B0
:1022200010B50400FFF702FC01002000FFF7E2FFF9
:10223000FF23A380BFF35F8F10BDC04670B50500BC
:1022400014001600002915D00C00002A12D0806856
:102250006B689847296800280ED073009B196200AC
:10226000033B1219CB18033A9C7088188A5C002A29
:1022700015D10670200070BD63001B197200033B6E
:102280009219CB18033A9E7088188A5C002A02D1F2
:1022900004703400EEE75A7004703400EAE75A70B4
:1022A0000670E7E730B583600023CCB24373013397
:1022B000047342608373C4730D000068012C06D957
:1022C000421C0133DBB2137003329C42F9D1FF216F
:1022D00029404B005B18C01800230338437030BD01
:1022E000F8B505000C1E07D0630001681B19033BFD
:1022F000CB185A78002A01D12000F8BD5000801870
:102300000338091800204F784870210058702800C1
:10231000FFF794FF390006002800FFF7E1FF0400F3
:10232000002EE9D0002826D031002200A8686B6872
:102330009847296800280FD063001B197200033BDF
:102340009219CB18033A9E7088188A5C002A00D034
:102350005A7004703400CFE773009B196200033B8E
:102360001219CB18033A9C7088188A5C002A00D096
:102370005A700670C0E73400BEE7C046F0B5574655
:102380004546DE464E46E0B50D006B0001685B1920
:10239000DF1E0400C85D83B00192CA1900284CD02A
:1023A00043001B18033BCB185E78B446002E16D1B1
:1023B000019E002E3ED0E67B002E04D073009B19B8
:1023C000CB18033B5D70E57300282FD100235370B9
:1023D00003B0F0BCBB46B246A946A046F0BD7200B1
:1023E0006244033A8A185178884600215170894620
:1023F0005970320001002000FFF720FF434682465B
:10240000002B07D05B0021684344033BCB185A786C
:10241000002A16D1424651462000FFF70FFF2168DF
:10242000019BCA19002BC6D10028CFD043001B182E
:10243000033BCB1800219970C8E7019B002BBAD150
:10244000C4E7500080180338091848788346484686
:102450004870587041462000FFF7F0FE594680460C
:102460002000FFF73DFF414602002000FFF7E6FE97
:102470008046CFE7F0B557464546DE464E46E0B5C6
:1024800083B00191457B04006B0000685B19DF1E7F
:10249000C15DC21900294ED04B005B18033BC31825
:1024A0005E78B446002E18D1019E002E40D0E67B07
:1024B000002E04D073009B19C318033B5D70E573B5
:1024C000002931D1002328005370617303B0F0BCA0
:1024D000BB46B246A946A046F0BD72006244033A2C
:1024E0008218507880460020507081465870320023
:1024F0002000FFF7A3FE43468246002B07D05B0077
:1025000021684344033BCB185A78002A17D142462E
:1025100051462000FFF792FE019B01002068C2197E
:10252000002BC4D10029CDD04B005B18033BC3184E
:1025300000209870C6E7019B002BB8D1C2E750007D
:102540008018033809184878834648464870587000
:1025500041462000FFF772FE594680462000FFF7F3
:10256000BFFE414602002000FFF768FE8046CEE72E
:1025700070B5040000292CD0437B8B422ED0056817
:1025800048004018033828188278002A21D05300C8
:102590009B18033BEA5CEE188A4202D11BE0002A3A
:1025A00008D053009B18033BEB185A788A42F6D1A7
:1025B00042785A7000230122837043702000FFF795
:1025C000DDFE617B02002000FFF738FE6073012012
:1025D00000E0002070BD43783370EBE70122190062
:1025E000FFF7CCFE60730120F4E7C0462C4B2D4A68
:1025F00070B51A602C4A2D4B2D491A6014008B6857
:102600009C43FBD12B4D2C4EB54208D2013E761B8C
:10261000B60808CD984723000134B342F9D100F041
:102620007DF8264A214B1A60214A9368DB43DB017F
:10263000DD09002BF9D14022214B224C224E9A6712
:102640005A671A67DA66B44208D223682000002B62
:1026500020D00834FFF7E4FDB442F6D31B4C1C4EE7
:10266000C022B168200002F065FDB460FFF7D0F928
:1026700000F02AFBFFF71CFC164C174EB44208D2A0
:10268000013E361BB60808CC98472B0001359E4208
:10269000F9D170BD0834FFF7B5FDB442D5D3DDE7FD
:1026A00000E00040BFCDFBFEFE7F3C0000F000409C
:1026B00000C00040F007002000080020FFFFFF01DD
:1026C00000F00140E8070020F00700200000002093
:1026D00000ED00E0000800200408002000BEFDE737
:1026E0000FB400B5084883B002F05AFE049B002BDB
:1026F00007D005A91800019101F026FE034802F059
:102700004FFE00BEFDE7C046746100108C5F0010F4
:1027100010B50148FFF7E4FF8461001010B50C20EC
:1027200082B000F037FBFFF76BF900280ED0854B25
:10273000854A1A605A609A60DA601A615A619A6131
:10274000DA611A62814A5A6202B010BD804CA067F9
:1027500000F028FB01227F4B1A60636C012BFCD137
:1027600003227D4B1A607A4A936B012BFCD1022421
:1027700001217A4A7A480533009400F0B7FA05231C
:10278000784A01217848009400F0B0FA774B5A68F3
:10279000FF2A02D8802252005A6080226E4B694C78
:1027A00012011A602169002905D0606901F046FE16
:1027B00001300138FDD1E0226C4B6D4819680A40A8
:1027C000026002221968514001320A40042102606D
:1027D0009A681142FCD08021664A0901116080226A
:1027E00052005A60644B2361644B5968FF2900D83A
:1027F0005A6003220121574B1A60604A93681942BC
:10280000FCD0E023106803405D4803601268032396
:102810004A4002211340594A036093681942FCD090
:102820008021584B090119608021574B49005160A4
:102830006361564B5A68FF2A00D859608022544B76
:1028400012011A60E169002905D0606901F0F6FD06
:1028500001300138FDD1E0234C4A11680B404D494D
:102860000B6080214C4B090119608021364B4900D7
:102870005160E361494B5A68FF2A00D859608022B1
:10288000474B12011A60216A002905D0606901F0E6
:10289000D5FD01300138FDD1E023404A11680B40DD
:1028A00040490B608021404B0901196080235B0087
:1028B00053608022244BD20223623C4B59689142E0
:1028C00000D25A6080223A4B12011A60616A0029D4
:1028D00005D0606901F0B2FD01300138FDD1E0237F
:1028E000324A11680B4033490B608021324B090199
:1028F00019608023DB025360144B63622F4B5A68CC
:10290000FF2A02D8802252005A6080222C4B1201EA
:102910001A60A169002905D0606901F08FFD0130BE
:102920000138FDD1E023254A11680B4025490B6091
:102930008021254B0901196080235B005360124BF5
:10294000A36101E7300C0020006CDC021BB7000023
:10295000008000403CB0004030B00040002F68597B
:102960000080024000389C1C00C0024030800040C3
:102970003090004030A00040001BB7003C80004079
:102980003C9000403CA000404059730754800040F8
:1029900054B000405490004054A00040608000407B
:1029A00060B000406090004060A000406C8000403B
:1029B0006CB000406C9000406CA00040488000402B
:1029C00048B000404890004048A00040014B8000C3
:1029D000C0587047300C002001238340002904D0E8
:1029E000034A1360034A13607047034A1360FBE70E
:1029F00080E200E000E100E080E100E0024B103006
:102A00009B688000C058704700ED00E070B50D0075
:102A1000EFF3108672B60F4A1368002BFCD0BFF399
:102A20005F8F0D4B10309B6884001B590B4A9342FB
:102A300003D09D4201D0FFF76BFE074B9B681D51F1
:102A4000BFF35F8FBFF35F8F0022024B1A6086F3E4
:102A5000108870BD240100D000ED00E0CD01001011
:102A6000F0B5DE4657464E464546E0B50C0083B00D
:102A7000EFF3108A72B65A4A1368002BFCD0BFF3EA
:102A80005F8F1022914681444A46564B96009B68C0
:102A90009D59554B98469D4205D0A54216D0534F9F
:102AA000EB1B2F2B14D94F4B9B689D51BFF35F8FAE
:102AB000BFF35F8F00224A4B1A608AF3108803B07D
:102AC000F0BCBB46B246A946A046F0BD1D00EAE7F1
:102AD000012383409B465A46454B1B681A4000928F
:102AE0005A46444B1A60BFF35F8FFDF7BCFB019061
:102AF000002803D0814501D0FFF70AFE01232A00F8
:102B00009A4393689C4208D15FE04B005B189B009E
:102B1000FB189968A14211D01A00062151560029CC
:102B2000F3DA009B002B05D05A46334B1A60304B2A
:102B30001A60B8E75A462F4B1A60B4E70621595677
:102B4000002921DB4A00501880003C188046A0680C
:102B50009860E079D871062020569871002824DB0F
:102B6000A488F81A6405241544440019E0240005DB
:102B7000400D240220439880204B52181878920070
:102B8000BA1890711970CCE70199002910D1FF3162
:102B900091711B49918019490A789A71194ADB1B76
:102BA0005B415A43120D0A70BBE7BD200002E2E709
:102BB000154A1649D21A083A5002400D014399802D
:102BC000134952080A43DA80ABE706215156130035
:102BD0000029B7DA019A002AEAD14546DBE7C04668
:102BE000240100D000ED00E0CD0100103C030020E6
:102BF00000E100E080E100E080E200E0EA0C00207B
:102C000000BDFFFFAAAA00007603002000F0FFFF2E
:102C100000F8FFFFF8B5012504000543FDF723FB8D
:102C2000EFF3108C72B6214A1368002BFCD0BFF36F
:102C30005F8F1F4E2100B7681E4A1F4B891A4941FA
:102C40004B431B0D59B28300F858A8421CD00623F1
:102C5000D3568B421CD01223D3568B4222D01E2334
:102C6000D3568B4220D02A23D35603208B4210D038
:102C7000124B1A781970A271BFF35F8F00220B4BB1
:102C80001A608CF31088F8BDB2680D48D050EFE799
:102C9000002043001B189B00D218FF239371094B9F
:102CA0009380E5E70120F4E70220F2E7240100D059
:102CB00000ED00E03C030020AAAA0000EA0C00207E
:102CC000CD01001000BDFFFF054B064A1360064A08
:102CD000136053609360D3601361536193617047D5
:102CE0008080808000E400E004E400E0F8B50400A7
:102CF0000C2017001D000E0001F0A0FB43011B1A61
:102D00009901C91AC90009188901380001F096FB18
:102D1000069B29041B0319432368002B20DB194B56
:102D2000194DE3185A4253418022520194461B0325
:102D3000164A63441360164A13601F00AA6897433B
:102D4000FBD1C023221D9B01134321222660A060DA
:102D50001A602268002AFCDA0822E1601A60F8BDD5
:102D60003F2322681340B342D9D1A3681B051B0D32
:102D70008342D4D1EE22E368D20213408B42CED1FB
:102D8000EDE7C0460040FDBF00C0004000E000404D
:102D900000F000408023024A9B000343D362704747
:102DA00000800540AA23064A1B0113602F23054912
:102DB000D360054B19605368002BFCDA7047C0469E
:102DC0000040024000B0FA00006002409A4200D287
:102DD000885470477047C046F8B557464546DE46AA
:102DE0004E46E0B598460A9B06009A460D9B0F009A
:102DF000934615009B0710D10B9B0C9A93420CD263
:102E000013005C460B9A9D1A5D4422004346013430
:102E100039002020B047A542F7D10B9C6319002C44
:102E200009D01D0053462A1B013C185D390043465A
:102E3000B047002CF6D10D9B9B070ED55B46EC1AD4
:102E40000C9BA34209D999462A0043463900202009
:102E50000134B0470135A145F6D82800F0BCBB4687
:102E6000B246A946A046F8BDF0B54F464646D646FE
:102E7000C0B584B098460EAB1B78129F9946944615
:102E80000D9C109B119EBA0725D4002E61D19C4247
:102E900000D3C0E001223A4092461F2C00D9B9E08D
:102EA0000C9A551E302201E0202C03D001342A5503
:102EB000A342F9D85246002A0DD0A6420BD90C9A4B
:102EC000551E3022202C02D155E0202C53D0013445
:102ED0002A55B442F9D1FA062DD57A0554D4002CDE
:102EE0004ED10F9B102B00D188E00F9B022B19D0E5
:102EF00030230C9A012413704B46002B20D02D2335
:102F00000C9A135501340C9B624600930397434679
:102F100002960194FFF760FF04B0E0BCBA46B146E8
:102F2000A846F0BD01240C9A6033137030220C9B2C
:102F30001B191A700134202CE5D04B46002BDED132
:102F40007B0730D43B07DED520230C9A1355013480
:102F5000D9E7012215003D40AA463A421CD04A4614
:102F6000002A2BD10C323A4228D19C42A5D21F2CE8
:102F700096D9202E15D92024FA06C4D57A0503D473
:102F8000A3421DD0B4421BD00F9B102B23D0022B89
:102F90000ED0202CB7D0C9E79C429CD21F2C00D861
:102FA0007EE7202497E72B230C9A13550134AAE7D8
:102FB000202CA8D00C9B1B19013438E0013ED4E72B
:102FC000631E012C00D18CE70F9A102A25D0022A0B
:102FD0002AD01C00AAE7BB0607D4202C93D00C9B58
:102FE0001A19013478231370D3E7202C00D18AE713
:102FF00058220C9B1B191A700134CAE7BB0604D473
:1030000078230C9A0124137090E758230C9A01241A
:1030100013708BE7202400265DE7023CBA06E7D454
:103020000C9A12191C00DDE70C9A92465344622256
:103030001A70AEE710B5002800D110BD02F060F99B
:10304000FBE7C046F0B5DE4657464E464546E0B57E
:103050009BB09B46249B89469846259B0B900C92DF
:103060004046424619009A4601F0B9FC002800D0BB
:10307000D8E0012240465146774B524201F0AAFC6B
:10308000002800D0CEE0012240465146734B524208
:1030900001F08AFC002800D0C4E000220023404652
:1030A000514601F081FC002800D0B9E14246534668
:1030B0000A9209938023289ADB001A400E92289ADC
:1030C0001A4201D1062326930A9A099B160013433C
:1030D00000D0C7E0289B002500261B0500D49BE1FB
:1030E00000230D93269A0D9B9A4200DC9FE1D31A90
:1030F000013B26938023289ADB001A4300230027F4
:1031000028920D93279B0024BB4200D9DC1B02238D
:10311000289A1A400E92289A134203D07B427B4190
:103120005B421C400D9B002B07D00A9809992A008E
:10313000330001F0D8FB0A90099100220023404699
:10314000514601F031FC002805D08020000684465D
:10315000099961440991289A414B0B9D13400493AE
:10316000269B0A9A0293099B039400920193494675
:103170005B4628000C9A00F08BF90400002F62D007
:10318000289B220098061F23C0179843631C98466B
:1031900049465B466530A8470D9A0025D317D418D9
:1031A0005C40D30F9A46013F01E0202D13D00AAABC
:1031B00094461F23200063440A2101355E1901F063
:1031C0003DF93031317020000A2101F037F9260035
:1031D0000400092EE9D805230693002304930A333B
:1031E0000393534605970B9F029312AB00934246FD
:1031F0005B46494638000195FFF736FE0E9B0400FA
:10320000002B20D00C9BC51A279BAB421BD91E005C
:1032100022005B46494620200135B8470134AE42C2
:10322000F6D810E0289B42460493279B4946039317
:10323000269B0B9802935346009201935B460C9A8F
:1032400000F026F9040020001BB0F0BCBB46B246DB
:10325000A946A046F0BDC046FFFFEF7FFFFFEFFF8E
:10326000FFF7FFFF734B099F9C467800400D6044B9
:1032700001F0C8FB704A714B01F053FB704A714B6F
:1032800001F028FB3B03704A1B0B1A4304000D009E
:10329000300011006D4B002201F013FB6C4A6D4BA6
:1032A00001F03FFB02000B002000290001F012FB9F
:1032B00001F0C0FB0D9001F0A5FB674A674B0400CD
:1032C0000D0001F02EFB0022654B01F003FB01F025
:1032D000B1FB644A0600644B2000290001F021FB89
:1032E000040030000D000F9601F08CFB5F4A604B2C
:1032F00001F017FB02000B002000290001F0E1FAA9
:1033000002000B0006000F0001F00BFB320004006E
:103310000D003B003000390001F0DCFA0022109073
:103320001191544B2000290001F0DDFA0022524B8C
:1033300001F0D0FA02000B002000290001F0D3FABE
:1033400000224E4B01F0C6FA02000B0020002900BB
:1033500001F0C9FA0D008021040032003B0000207A
:10336000C90501F0AEFA02000B002000290001F0AF
:10337000B1FA02000B001098119901F0B4FA002282
:10338000314B01F0A7FA3E4B0F9C9C46644400224F
:10339000230501F0C6FA05000E0002000B000A9892
:1033A000099901F001FB00280AD00D9B2800013B80
:1033B00031000D930022304B01F095FA05000E000C
:1033C000C6270D992B0063318F42BF4128997F4258
:1033D0000437090500D495E6334300D182E6099C01
:1033E000284A2100284B0A9801F0ECFA002808D05E
:1033F00000222100254B0A9801F0D6FA002800D0BF
:1034000070E6269B002B00D17CE60E9B5A1E934152
:10341000269AD31A269375E6002304270D9371E6A6
:1034200043460A9380231B065344099342E6002334
:1034300026935FE601FCFFFFFB799F501344D33FC7
:10344000B3C8608B288AC63F0000F03F0000F83FF9
:1034500061436F63A787D23F71A379094F930A40F5
:103460000000E03F1655B5BBB16B0240EF39FAFEE4
:10347000422EE63F00002C4000002440000018408F
:10348000FF0300002D431CEBE2361A3F80842E41DF
:10349000F0B54E46DE4657464546E0B597B09946EC
:1034A000209E219F229B8346984607910C923B00C9
:1034B00032003000390001F092FA002800D0ADE16E
:1034C000012230003900CC4B524201F06DFA002845
:1034D00000D003E1012230003900C84B524201F014
:1034E00079FA002800D0D9E0002230003900C44B1E
:1034F00001F070FA002800D0BBE000223000390053
:10350000C04B01F051FA002800D0B2E000220023A5
:103510003000390001F048FA002800D0D3E0002341
:103520000D93249B5B0501D40623984608AB9C466B
:103530001722002430234146624404E0013413552D
:103540000139202C01D00929F8D8884630003900EB
:1035500001F070FA4246AC4BD2009B181A685B68C7
:1035600005000892099301F04DFA02000B003000AB
:10357000390001F0A6F9089A099B01F0D2F90A90E6
:103580000B9101F07BFA824601F038FA02000B0041
:103590000A980B9901F095F900229C4B0A900B9127
:1035A00001F018FA002800D1E2E001239C46E24431
:1035B000504601F023FA02000B000898099901F027
:1035C000F9F9002802D000239A4601354346002B22
:1035D00000D18BE008AB17269C46089566445546FB
:1035E00014E001235B4243440A2128009A4600F07C
:1035F00025FF013430313719397028000A2100F0D5
:103600001DFF092D00D8D0E0D0460500202CE8D1C0
:103610000EAB98460323249A1340012B00D0E8E018
:10362000239A2023002A1DD00D9A002A00D0FDE005
:1036300024990C320A4215D0239A013A2392239AF4
:103640009A4200D805E108AA944617213022614425
:10365000202B07D023980133CA54834200D1E9E0DC
:10366000202BF7D1249A01930392239A4346029286
:103670001EE0249B58460493239B009601970393D6
:1036800043460C9A029307994B46FFF7DBFC17B0B1
:10369000F0BCBB46B246A946A046F0BD249B5B07E2
:1036A0000ED403225A4B249901920391239902913B
:1036B000009358464B460C9A0799FFF78DFBE6E7B7
:1036C0000422544BEFE73B0032000020002101F0C0
:1036D000F8F8012306000F000D9322E7249B0393C3
:1036E000239B0293042301934B4BE1E7280001F055
:1036F00089F902000B003000390001F0E2F8434B79
:10370000002206000F0001F04FF90EAB984600288A
:103710000AD10022300039003C4B01F05BF900284F
:1037200002D1EB0700D50135202C00D172E708AAA1
:1037300094461723280063440A2101341E1900F01F
:1037400055FE3031280031700A2100F04FFE051E71
:10375000EAD10323249A1340012B6DD0202C48D0AA
:103760000D9B002B14D02D224146631C0A5579E78E
:1037700000220A980B99254B01F016F9002800D079
:1037800024E75346002B30D101239C46E2441DE739
:10379000249B5B0724D4249A2300120700D461E7FA
:1037A0002022414601330A555CE75746089D202CEC
:1037B00000D12DE7220030214046002F09D00132F0
:1037C000B154202A00D123E7831A013BE318002BD0
:1037D000F5D10EAB98462E234146541C8B54A3E7DB
:1037E0002B224146631C0A553CE7DB0700D4EDE67B
:1037F000CAE7202336E7C046FFFFEFFFFFFFEF7F5A
:1038000065CDCD4165CDCDC1486300100000E03FDE
:103810009861001090610010A0610010249B039338
:10382000239B0293032301930C4B41E7239A013A14
:10383000239217E7040091E7239B002B8ED00D9B6A
:10384000002B08D10C2224992300114200D1F6E666
:10385000F2E61C0082E72300EEE6C0469C61001001
:10386000F0B5DE4657464E464546E0B5A1B01C00D1
:103870002A9B92460993B94AB94B81468B461A60F6
:10388000002900D12BE120780027002800D12DE16C
:10389000B44B5E460893B44B0C9309E03A00534690
:1038A00031007D1CC8472F0001342078002871D0DA
:1038B0002528F3D110239B460C3B9846023B00225F
:1038C0009C460134207825000300203BDBB2102BFE
:1038D00003D808999B00CB589F460300303B092B27
:1038E0006BD9002398462A2800D18AE000230A9346
:1038F0002E2800D176E00300683BDBB2122B1CD8E7
:103900009A499B00CB589F46012301341A43D9E7BB
:10391000634601341A43D5E7434601341A43D1E7DD
:103920005B4601341A43CDE7082301341A43C9E743
:1039300080235B0068781A43013567280AD8242859
:103940001DD90300253BDBB2422B18D80C999B00F4
:10395000CB589F460300693BDBB20F2B0FD80121E8
:10396000834C9940A4460C400B946446214200D0FD
:1039700002E20A2B00D1E1E0072B00D1B8E07B1C6A
:1039800098463A00534631006C1CC8472078474699
:1039900000288DD1B3463C00BA4501D853465F1E7E
:1039A00053463A0059460020C847200021B0F0BCD9
:1039B000BB46B246A946A046F0BD002301009800D0
:1039C000C01801354000401829780300080030383D
:1039D000303B0928F3D99846002308000A932E2883
:1039E00000D088E780236878DB001A430300303B6F
:1039F000691C092B00D807E12A2800D116E10D0027
:103A000079E7099B02CB8846002903DB607809939C
:103A1000651C6BE702210A434146494288466078AB
:103A20000993651C62E768786C2800D123E2802343
:103A30005B001A43013580E780239B0068781A43B6
:103A400001357AE76878682800D11AE280230135C9
:103A50001A4372E7462800D18BE10721099B0492A3
:103A6000424607338B43190003920A9A4846029252
:103A70000CC90092019309913A0053463100FFF7B7
:103A800007FD6C1C070010E77B1C98463A00534664
:103A900031002520C84747466C1C06E7920700D432
:103AA00031E2099B3A0001CB31009B46C0B253463C
:103AB000C84743467C1C4744012B00D8FBE2A8467C
:103AC0004D4622005346013431002020A847BC4215
:103AD000F7D1A9465B46454609936C1CE5E6254BA4
:103AE000207899460027002800D0D1E6002453E72B
:103AF000099B190008C98846002B00D1A6E02121A6
:103B00000A43934610A98C461F220F21624409954F
:103B10008C4615000B9C02E0202C0CD01300604654
:103B2000184001003731092800D8073901342955D8
:103B30001A090F2BF0D8099D0B9490E0099B02CB3A
:103B400012930A9B8B46002B7AD1087802214942B6
:103B500000281AD001315C4659440FE0613800104A
:103B6000A00C0020A861001038620010EC61001069
:103B700041900000D52D00108C4203D063780134B1
:103B8000002BF9D15B46E31A0B9380231100DB0075
:103B9000194009911A4204D00A9B0B99994200D905
:103BA0000B930223190011400D91134200D18BE1B8
:103BB000002800D173E1099B002B00D142E10A9B50
:103BC0003A009C465B46BC44DB1B64469B464B4626
:103BD0000994A9461D0009E053463100571CA84727
:103BE0005B46D85D002800D155E13A009442F3D1FC
:103BF0002B004D469946099F0D9B002B00D04EE1AE
:103C0000129B6C1C099350E6002304009800C01816
:103C10000131400000190C78030020003038303B9F
:103C20000928F3D920000D000A9364E6099B0235A8
:103C300001CBC143C91708400A90099328785AE676
:103C400008780028A1D00A9B591E83E71021100094
:103C50008843113108438346520500D452E75B463E
:103C60000693082305930A9B3A00049310230393B9
:103C7000002302930B9B3100019318AB009348463D
:103C80005346FFF7F1F8434607006C1C09930CE616
:103C9000202301009943472904D180231B011A43A3
:103CA00002239843452801D120231A430721099B69
:103CB0000492424607338B43190003920A9A4846FE
:103CC00002920CC90092019309913A0053463100C7
:103CD000FFF7B8F96C1C0700E7E5622800D1F6E1B0
:103CE0006F2800D132E1582800D1CFE010239A4349
:103CF000063B0D93692800D024E10B92530546D56D
:103D000001230B9A9A430B92692840D064283ED035
:103D10000B9A802311009B0019408B461A4200D059
:103D2000DCE1802314005B001C401A4200D07BE2DF
:103D300013005B0600D48BE1FF22099B02CB1140EC
:103D40008B4609935B46002B00D08CE10B9A103315
:103D5000110099430B91520500D484E100240B9B80
:103D60000693434605930A9B04930D9B03930023FC
:103D700061E120231A4370E610230D937828ACD11B
:103D80000C23110099430B915205B9D4BCE70B9A4F
:103D9000802311009B0019408B461A4200D0D8E0C6
:103DA000802314005B001C401A4200D0E2E11300A3
:103DB0005B0600D527E1130009991B0600D495E2A4
:103DC00008C91BB2D8171A18424092B209919346FB
:103DD000DA0F1392002B09D1802310220B99DB00FC
:103DE0000B4091430B91002B00D01BE10B9A6123F8
:103DF000920600D54123DBB210A90A3B1F228C4654
:103E0000129343466244A84614970D9D5F4615934E
:103E1000B34616000AE03033DBB201343355AF420B
:103E200000D24EE1202C00D14BE1070029003800E0
:103E300000F004FBCBB20929EDD9129A94466344F1
:103E4000DBB2EAE75B46DB1B9B460B9B4C46994685
:103E50005346AA461D003A002B003100A0475B469E
:103E60000137D85D0028F6D14B460B932B00A146B5
:103E700055469A46C0E6C0239B00A8781A430235EF
:103E80005BE5C023A8781A43023556E520231A4380
:103E9000103B0D9374E72B004D469946ACE60B9B07
:103EA000BB46984500D8ABE647445C46A8464D461D
:103EB000FF1A22005346013431002020A847BC429B
:103EC000F7D1A94645469BE60B9A531C904500D86E
:103ED00022E24346DB199C1A4B46A9461D003A00D4
:103EE0005346013731002020A847A742F7D12B00C5
:103EF0004D469946434601330B935B46187800289C
:103F000000D058E67CE64346012B00D802E27C1E36
:103F10004444A8464D463A0053460137310020201C
:103F2000A847A742F7D1A9464546099B220001CBE5
:103F300031009846C0B25346C8474346671C0993B0
:103F40006C1CB2E4642800D1D7E619E708230D936E
:103F500016E70722099B07339343013294469C449A
:103F6000624609920CCB9C46DB1710931193109874
:103F70001199030053400E9364460B0063400F9366
:103F80000E9B0F9C1B1A8C410E930F946346DB0F04
:103F9000139300239B4663461A433BD00B9A61233D
:103FA000920600D54123DBB20A3B1293434610A987
:103FB0001F228C46002415934B466244B146149749
:103FC000169527000E9C0F9D90460D9E17930CE0B2
:103FD0003032D2B243460137DA55AB4500D177E1F2
:103FE000202F00D177E104000D00320000232000D3
:103FF000290000F065FAD2B2092AE9D9129B9C4641
:104000006244D2B2E6E7FF22099908C913401A00B8
:104010000991DCE60B9A10231100994300240B91BF
:104020005205BBD50B9B0693434605930A9B04930D
:104030000D9B0393139B029318AB3A0001940093DA
:10404000310053464846FEF70FFF6C1C07002CE476
:1040500013001B0600D458E1099B04CB1204120C78
:10406000934609936EE60B9A6123920600D541238D
:1040700010A91F228C46DBB262440A3B13971496A8
:104080005F461600AB4612930D9D08E03033DBB25D
:1040900001343355AF421DD3202C1BD0070029001B
:1040A000380000F0CBF9CBB20929EFD9129A944627
:1040B0006344DBB2ECE75B46270009936C1CFFF717
:1040C000F4FB159B45465E469846149FAAE70223DB
:1040D0000D9355E65D46139F149E40E60722099B0B
:1040E00007339343013294469C44624609921A680E
:1040F0005B6810009B4613005A46134307D10B9A86
:104100001033110099430B91520500D526E60B9A06
:104110006123920600D54123DBB210A90A3B1F227E
:104120008C461293434662441397159500245D46CE
:104130000700B34690460D9E14930DE03032D2B284
:10414000434601341A550023AB4200D1D4E0202C61
:1041500000D1D4E007000D00320000233800290010
:1041600000F0AEF9D2B2092AE8D9129B9C4662440B
:10417000D2B2E5E7099B1A0008CA1592DA179C1813
:104180005440DA0F1492002B08D1802310220B998F
:10419000DB000B4091430B91002B2BD10B9A612339
:1041A000920600D5412310A91F228C46DBB262443F
:1041B0000A3B129713965F461600AB4609930D9D76
:1041C00008E03033DBB20137F355AC420ED3202F79
:1041D0000CD004002900200000F030F9CBB20929EE
:1041E000EFD9099A94466344DBB2ECE75D46139E2F
:1041F000BB46129F0B9B3A000693434605930A9BCE
:10420000310004930D9B48460393149B6C1C02934E
:104210005B46019318AB00935346FEF725FE159BB2
:1042200007000993FFF741FB099B10CB1493002C67
:1042300008D18023DB0011001340102291430B9121
:10424000002B2BD10B9A6123920600D5412310A994
:104250001F228C46DBB262440A3B129713965F46DC
:104260001600AB4609930D9D08E03033DBB20137F1
:10427000F355AC420ED3202F0CD0040029002000AF
:1042800000F0DCF8CBB20929EFD9099A94466344CF
:10429000DBB2ECE75D46139EBB46129F0B9B3A00D8
:1042A0000693434605930A9B310004930D9B4846B1
:1042B0000393002302935B46019318AB009353468C
:1042C000FEF7D2FD149B070009936C1CFFF7EDFA73
:1042D000A64200D884E6159B0E940F959846179B2E
:1042E0003C004E46169D9946149F9BE608C9D81778
:1042F0001A18424009916AE5BE4200D827E7149B8C
:104300005E469846139F159D29E5099B04CB93466D
:10431000099317E53C0008E60B93F0E50EB4012283
:1043200030B584B007AC08CC064D010000942800DD
:1043300052420394FFF794FA04B030BC08BC03B0B7
:104340001847C046CD2D001010B5094A0300146867
:1043500084B0002C08D0012200910648524203A9E3
:10436000A047012004B010BD01F01AF80020F9E7C1
:10437000A00C00203530001001480421014B1847E3
:1043800090030020A9430010142310B501001888E1
:1043900004331B88984710BD162310B501001888F8
:1043A00002331B88984710BDF8B54746CE4680B506
:1043B0000F1E19D01423994604330400002501264A
:1043C00098464B461888434621681B88984701C485
:1043D000431E9841013540420640AF42F1D13000C2
:1043E000C0BCB946B046F8BD0126F8E7124A936F43
:1043F0009B0815D29066D166002905D0FFE7FFE73C
:10440000FFE7516F106F704704B580210906C2178E
:104410005140002800D0C84301F03EFD002104BDFA
:10442000F0B5146E556E576F166FFFF7E3FF146605
:10443000556657671667F0BD000000D0114A936FAC
:104440009B0813D210665166002905D0FFE7FFE7ED
:10445000FFE7516F106F704704B5002801D00020AE
:10446000C04301F019FD002104BDC046F0B5146E33
:10447000556E576F166FFFF7E5FF14665566576761
:104480001667F0BD000000D094464E4A926F920825
:10449000624601D230E0C046F0B54A4EB56F6D08B5
:1044A000FCD3346E756E776F366F00F025F8944646
:1044B000444A14665566576716676246F0BDC046A3
:1044C0009446404A926F9208624601D258E0C04634
:1044D000F0B53C4EB56F6D08FCD3346E756E776FDA
:1044E000366F00F04DF89446364A146655665767A5
:1044F00016676246F0BDC046002B24DB11D00029B0
:104500003EDA00B5C943404200D1013100F038F82D
:10451000C943404200D10131DB43524200D1013353
:1045200000BD002AEBD1002801D1002905D00020D0
:10453000C90FC90701D1C043410800B501F094FC7F
:104540000022002300BD00B500290ADBDB435242F4
:1045500000D1013300F014F8C943404200D10131C9
:1045600000BDC943404200D10131DB43524200D17A
:10457000013300F005F8DB43524200D1013300BDA6
:10458000002923D1002B18D1002A0CD0BC460D4F96
:1045900038667A6600210023FFE7FFE7FFE77A6FBE
:1045A000386F67467047002801D00748010000B502
:1045B00001F05AFC0022002300BD02000B00002085
:1045C00000217047000000D0FFFFFFFF002B00D04C
:1045D000BFE0130C28D1002AE7D080B4114F396610
:1045E0007A66FFE7FFE730B4040C7B6F396F1B047A
:1045F00023433B667A66FFE7FFE7FFE7C04684B2E6
:104600007B6F3D6F1B0423433B667A66FFE7FFE742
:10461000C04600232C042D0C7A6F386F00196941B5
:10462000B0BC7047000000D0F0B594460025140ED1
:1046300001D112020835140F01D112010435940F73
:1046400001D192000235D40F01D152000135D40BB3
:104650000134254F7C66254C3C660E0C93B2FFE777
:10466000FFE7FFE73C6F6643360C7703BE467343B4
:10467000DF0B5B04C01AB941130C7343DB18C91A72
:10468000CE086643360CB64493B273431F0F1B012A
:10469000C01AB941130C73431F0B1B05C01AB94153
:1046A000860D8F023E436643360C092D24DB520AE9
:1046B0007243801A7703460A6643360C16235B1B47
:1046C000DE40DF40BF1964466643821B70460435F6
:1046D00006330100D940A840C01900D30131A242DD
:1046E00006D20023F0BD0000000000D0FFFFFFFF56
:1046F000121B0130F3D3F1E709277F1BFE4064460C
:10470000A2B27243801A00D20139220C7243130CF8
:104710001204821A99410B007046043513370100C8
:10472000F940A840801900D30131002B02D1A242E8
:104730000AD2F0BD013000D30131121BFAD2013B85
:10474000F8D1A24200D2F0BD013000D30131121BDA
:10475000F7E7F0B51C0C00D080E00CB400251C0A73
:1047600004D11B02160E3343120208351C0B04D170
:104770001B01160F3343120104359C0B04D19B001F
:10478000960F334392000235DC0B02D192185B4145
:1047900001351C00971864410134464F7C66464C35
:1047A0003C660E0CFFE7FFE7FFE7C0463C6F664341
:1047B000360C7703BE4697B27743C01B00D201394F
:1047C000C01B00D201399FB27743C91BC91B170C0C
:1047D00077437E04FF0B801BB941CE086643360C3D
:1047E0000C2D33DBB644120B1F053A431B0B97B25B
:1047F0007743C01B00D201399FB27743C91B170C06
:1048000077433E043F0C801BB941860D8F023E4327
:10481000664329277F1BFE400C3D7746AF40BF19FA
:1048200030BCA2B2ABB272437343801A9941220CDE
:104830007243130C1204801A994102000B000137D5
:10484000001BA941F9D2781E0021F0BD0C277F1B67
:10485000FE4077467F0BAF40FF19E0E700245D1C68
:1048600007D0144F7D663966FFE7FFE7FFE7FFE7F4
:104870003C6F95B29EB265436643401BB141150C37
:104880001E0C6543664336042F0C3E432D04401B2B
:10489000B141994204D202000B0020000021F0BD7A
:1048A00001D19042F7D3801A994101349942F2D351
:1048B000F6E70000000000D0FFFFFFFF4840414046
:1048C000484018B41B4B5B68FC46019308BD04DFED
:1048D0005B4B001018B4174B1B68FC46019308BDD6
:1048E00000DF654B00109446134A926F920809D27C
:1048F000624618B40F4BDB68FC46019308BD0CDF21
:104900001D4E00100C4AF0B5146E556E576F166FA1
:104910006246FFF7EEFF084A14665566576716674A
:10492000F0BD18B4034B9B68FC46019308BD08DF3B
:10493000C14C001008090020000000D0FFB5504015
:104940004240504059404B40594000E0FFB5154FA0
:104950004C00640D03D0BC4204D10C0314D80020D9
:10496000090D09055C00640D03D0BC4204D11C0391
:104970000AD800221B0D1B0501264B4009D44B40D1
:1049800003D58B4200D18242FFBD9942FCD19042B7
:10499000FFBD0B43DB1803431343F5D0C94349184C
:1049A000FFBD0000FF07000000B5FFF7CFFF80410B
:1049B00000BDC04600B5FFF7C9FF01D9002000BD0A
:1049C000012000BD00B5FFF7B9FF01D9002000BDEF
:1049D000012000BD00B5FFF7B1FF804100BD0120FF
:1049E00040054A00121804D85A00121801D80020B5
:1049F0007047012070470020704700000021002808
:104A000005D17047C1174840401AFAD0C90713B5FD
:104A1000064B1B6898470CBC441CA2401005120BA7
:104A20000349091B09051943114310BDCC0C002093
:104A30001F04000010B54C00620D8023D218DB006B
:104A4000D21A5B057E2A10DD9E3A13DACC170903D1
:104A5000490819435242D140640001341532202ADA
:104A600005DAD0400843604310BD002010BD084661
:104A7000604310BDC80FC018013810BD18B4044BF6
:104A80005B6AFC46019308BD24DFCD4F0010000097
:104A900008090020132370B51D78012D15D010DDF5
:104AA0001C48FFF779FC1C4C01008022200000F01C
:104AB00041FB022D06D01948FFF766FC184B186021
:104AC00070BD154C174BA364F5E7164B124C2360D1
:104AD0006360A360E36023616361A361E3612362B8
:104AE0006362A362E36223636363A363E363236498
:104AF0006364A364E36423656365A365E365236678
:104B00006366A366E36623676367A367E367A364DB
:104B1000D1E7C04653440000080900204C33000090
:104B2000CC0C0020294B001007B5604601880A0A0A
:104B30000230DF2AFAD1C9B2820804D30288408841
:104B40000004104300E00068014A5050039007BD84
:104B5000080900200FB403BC0CBCF0B50124E40725
:104B6000634000E0F0B50C0DCF0F661E3605891BC3
:104B7000640503D3C943404200D30131640D03D01F
:104B8000661CF60A07D0E41B00207F00791C890709
:104B90008912803C24031D0DDF0F6E1E36059B1B02
:104BA0006D0503D3DB43524200D301336D0D03D0B7
:104BB0006E1CF60A07D0ED1B00227F007B1C9B07B2
:104BC0009B12803D2D032F1B661B58D4A446202E1C
:104BD00046DA20371400BC401D00BD40F24033418E
:104BE0002A4380185941CB0F05D0C943C043002246
:104BF00064425041514162464D0D28D10D0D07D1FF
:104C000000281FD0241940414941013A0D0DF9D027
:104C1000640006D3013000D30131002C01D14008DB
:104C20004000013A0BD4941CE40A04D1120511444B
:104C3000DB071944F0BDD907204B194300E0D90721
:104C40000020F0BD0029DDD1002CDBD1F0BD013208
:104C5000C6074008CD0728434908002EE1D0D9E710
:104C60003C2E29DA203E40371400BC4000D00124FD
:104C7000F24014431A00BB401C43D317ACE7AC46C8
:104C8000202F08DA20360400B4400D00B540F8406B
:104C900039412843A5E73C2F0CDA203F4036040079
:104CA000B44000D00124F84004430800B1400C4354
:104CB000C117EAE710001900002494E70000F07F14
:104CC000F0B50C0D661E3605891BE60A6405640DF9
:104CD00002D0651CED0A04D0002001210905803CAA
:104CE0002403A4461C0D671E3F05DB1BE70A640571
:104CF000640D02D0651CED0A04D0002201231B05BF
:104D0000803C24037740644497B484B296B27443E1
:104D1000070C7E43150C6F4380B26843361802D3EC
:104D2000012000043F183004350C00197D418446F1
:104D300088B29AB250430C0C62431F0C7C438EB273
:104D40007E43921902D301263604A4191604170CC7
:104D50003618674101BC81B29AB25143040C6243D8
:104D60001B0C5C4380B25843121802D3012000048C
:104D700024181004130C401863412D185E410020C4
:104D8000474106BC88B293B258430C0C6343120CE3
:104D9000544389B251435B1802D3012109046418BA
:104DA00019041A0C091862416D1856410020474138
:104DB00018BCF902720D1143F0026A0D1043ED02A6
:104DC0000A0D03D16D1940414941013B124E9B1B15
:104DD0007600B3420ED26D0007D301300026714138
:104DE0006646354301D1400840001B05C918E40759
:104DF0002144F0BD0BDA013306D1013004D1013179
:104E00004F0D01D04908F2E7E1070020F0BD01365F
:104E100031050020EBE70000FF030000F0B51C0D9A
:104E2000671E3F05DB1BE70A6405640D02D0661CA4
:104E3000F60A04D0002201231B05803C2403D02560
:104E40002D060026F6432E661E096E66CE0FF61955
:104E5000B44649004F0D02D07E1CF60A03D0002054
:104E60000021403F3F033E1BB600B444013F7F0595
:104E7000C91B49082E6F013676089C02950D254303
:104E80007543ED137543AD1301356D10F603761BB5
:104E90000CB4CC02450D2C43A2B2B3B25A43270C3A
:104EA0007B43350C6F43A4B26C431B1902D301241E
:104EB00024043F191C041D0CA4187D4124196D41C4
:104EC000009A91B2ACB26143170C7C432B0C5F4348
:104ED00092B25A43A41802D301221204BF1822042A
:104EE000230C52187B41019C6C431B19520ED901B3
:104EF0000A434401A01A81B2B2B2514303145A4387
:104F0000360C734387B27743D617D21900277E41F8
:104F100036049B191704160C7F185E417316ED18A2
:104F2000F301002680337541A90F06D16400690A98
:104F3000E8055B0A184309D22FE004229444803329
:104F40007541A90AA8059B0A184326D34041494147
:104F50002404009A019B0D005543641B4343E41A4B
:104F600095B286B27543170C7E43030C5F4392B231
:104F70005A43B61802D301221204BF183204330C6C
:104F800052197B4152429C41002C02D40022013034
:104F900051414008CA071043490802B06246D7078A
:104FA0009210084BD218084B9A4203D21205891866
:104FB000C919F0BD0020002A01DC3900F0BD013321
:104FC0001905F5E7FD030000FE070000002200B50B
:104FD000203200F004F8080000BD000000220B158C
:104FE0000AD410B5944600F031F81414013400DAF4
:104FF0000021CB17144C2047002000217047624449
:10500000343A0CD40C2A07DA040091409040524202
:105010002032D440214310BDD843D94310BD2032A3
:1050200007D40C469440524220321141D0402043D4
:1050300010BD0800C917203203D45242203210415B
:1050400010BD1800190010BDFF4F00100A0DCC0F45
:10505000531E1B05C91A520503D3C943404200D34E
:105060000131520D03D0531CDB0A07D0121B002064
:105070006400611C89078912803A1203014BD21A1D
:1050800070470000FF030000132310B512481C787E
:10509000FFF782F90100012C0AD003DD80220F48BE
:1050A00000F048F80E48FFF76FF90E4B186010BD7E
:1050B0000A4C5422200000F03DF80B4B6365A365B9
:1050C000E36523666366A366E36623676367A36796
:1050D000E3672362E361E5E753460000080A002026
:1050E0004C330000CC0C0020ED50001007B560469A
:1050F00001880A0A0230DF2AFAD1C9B2820804D331
:10510000028840880004104300E00068014A5050C3
:10511000039007BD080A002001480421014B1847ED
:10512000A0030020A9430010014B1B681847000092
:10513000A0030020014B5B6818470000A00300207B
:10514000030010B5080011001B68984710BDC04649
:10515000F0B546464F46D646C0B5437C80460E0065
:105160001700002B46D0002A3FDD4B1E9946244BEA
:105170000125002400209A460DE04B461B5D0D3BA7
:105180005A425341325DDBB20A2A0BD02B00013464
:1051900001359F421ADD002CEFD14346325D1B7C66
:1051A0000A2AF3D1002BF1D1A04204DA4346211A96
:1051B0001B6830189847434650461B6802219847A1
:1051C000013428002B0001359F42E4DC874204DDD6
:1051D0004346391A1B6830189847F619013E337850
:1051E0000D3B5A42534142461374E0BCBA46B146A5
:1051F000A846F0BD0368110030009847F5E7C046A7
:1052000004640010F0B557464E464546DE461C0085
:10521000D023E0B51B061F68344B83B006000D0099
:10522000180001A991469A4600F03EFE80460028EB
:1052300008D1019B7FB29F4204D0504600F044FE4B
:10524000012398466B1C03D1300000F05FFA050083
:10525000002C27D1264F274B1C68002C18D04B461A
:10526000002B21D1244B994602E0E468002C0FD09A
:105270002368002BF9D04B461B68002B01D0A342BA
:10528000F3D120002A003100B847E468002CEFD1A8
:105290004346002B25D103B0F0BCBB46B246A9461D
:1052A000A046F0BD154FD6E7134B99460A239B46FF
:1052B00002E0E468002CEBD02368002BF9D04B46C9
:1052C0001B68002B01D0A342F3D12A00310020003B
:1052D000B8475A466B4620001A7101A90122B84707
:1052E000E7E7504600F0B8FDD5E7C046E8070020E4
:1052F00051510010980C00209C0C002041510010CE
:10530000F0B5CE46474680B583B06B46DE1CD02351
:1053100030701B061C681F4B804601A91800994677
:1053200000F0C2FD071E20D01B4B1C68002C28D0AB
:105330001A4D02E0E468002C0FD02368002BF9D04E
:105340002B68002B01D0A342F4D1200001223100B0
:10535000FFF7FEFEE468002CEFD1002F11D140468C
:1053600003B0C0BCB946B046F0BD019B64B29C42DC
:105370000BD0484600F0A8FD074B01271C68002C05
:10538000D6D1484600F068FDE9E7034B1C68002CC5
:10539000CED1E4E7E8070020980C00209C0C002008
:1053A00070B5040000F0B2F90023010005000122ED
:1053B0002000FFF727FF084B1C68002C06D063680D
:1053C000002B05D09847E468002CF8D1280070BD68
:1053D000E468002CF3D1F9E7980C0020F8B5DE461C
:1053E00057464E4645468346E0B505200C00FDF77E
:1053F000EDFA0600600821008019FFF71FF843004E
:1054000098468044070005214046FFF717F83B1AED
:105410009A46204B8146700080199C4234D81E4920
:10542000FFF70CF8451C5B461C6800230422E3666A
:1054300023680120534002321A4080235B0123433A
:105440001A605346E3614B46236243464F2B03D910
:1054500050214046FEF7F2FFA023E050E36F220008
:105460005D4080237C322D045B0113432D0C1D60B5
:10547000012339003000E366FEF7E0FFF0BCBB46D5
:10548000B246A946A046F8BD0449FEF7D7FF451C21
:10549000C9E7C0463F420F008096980040787D01E2
:1054A000104A70B5821A53425A41072352429A4316
:1054B0000D4B10321A600D4B0D4C1A601500A3688D
:1054C0009D432B1EFAD166240268FF340571D56610
:1054D0001460633C8833FF3CD5639563D450FFF779
:1054E0007DFF70BDB003002000E0004000F00040F0
:1054F00000C00040F0B557464E464546DE46904651
:105500000022E0B583B01E000CAB1B7884469A469F
:105510000368DA6601325960DA66002E4DDD5146C5
:105520004A40520201928022914632008024771E26
:105530000020464610219046A4000025002802D1F4
:1055400062461579AD020022934687421AD0325C3A
:105550002A435D462A431A615A6B1142FCD04A46DF
:105560009D58002D11D1874222D001308045E4D1D1
:10557000634652461A7103B0F0BCBB46B246A94618
:10558000A046F0BD019A9346E1E75A6D0122934689
:105590005A6B2242FCD01A6E5A46002AE5D0002DE2
:1055A00003D0EB0701D42D07E2D402204042DFE70D
:1055B0005246002AD9D1D346EAE70020D8E7C046B0
:1055C000F0B54546DE4657464E4693460022E0B5C6
:1055D0001D0009AB1B78040098460368DA660132A7
:1055E0005960DA66002D3EDD41464A40520294463B
:1055F00080220020520091466F1E803A596F102978
:10560000FCD0002826D000268021B24649008742DF
:1056100012D0196102E0996F002913D19958596D80
:105620000029F8D00220404243462371F0BCBB461B
:10563000B246A946A046F0BD6646514631434E46A5
:105640003143E6E759461B690B5401308542EBD0E4
:105650002368D3E721790029D5D08026A021F60040
:10566000B246C900D3E70020DEE7C04610B50A22E3
:10567000002100F06FFB10BD014B18687047C04659
:10568000B8030020024670B50A4392072AD11E4D86
:10569000EE0104C808C9541B9443344017D0D0B25B
:1056A000D9B2401A2106014310D190B299B2401AE2
:1056B000210401430AD110021902000A090A401A02
:1056C0002102014302D1100E190E401A70BD9A42F8
:1056D000DFD010BA19BA884201D9012070BD00206C
:1056E000C04370BD02780B7801300131002A09D027
:1056F0009A4207D102780B7801300131002A01D09B
:105700009A42EFD0D01A70BD0101010110B5830794
:105710000AD00300032102E001330B4205D01A78BE
:10572000002AF9D1181A10BD030019680C4A0D4C53
:105730008A188A4322420FD15968094A04338A18C9
:105740008A43224208D15968054A04338A188A4399
:105750002242F1D000E001331A78002AFBD1E1E7C0
:10576000FFFEFEFE80808080F0B5DE464E46454658
:105770005746E0B59C4C8346A544884614001E005D
:10578000012B00D82AE101200125B4460021012285
:10579000012306006D4205E0190001225E1B8B18F3
:1057A0009C450DD96019E75C805C8742F4D300D139
:1057B00088E001220D0001318B1801269C45F1D8AB
:1057C0000123009666469C46023B994648460021C6
:1057D000A94601220500023306E05A1B944619002F
:1057E00001228B189E420DD9A018E75C405D8742CC
:1057F000F3D86CD0012301220D0001319C468B1897
:105800009E42F1D82B004D4601336A1C92469342CA
:1058100002D362469A460092FFAA02AB0C3240C302
:105820009A42FCD101256D42002E0DD02300A446E2
:10583000751E371960191A78C11A920002AC01332B
:10584000A1509F42F7D16446009B52462000E118C8
:1058500000F012FB002869D100235246994601331B
:105860009B1A0193330000274E4699465B46D81990
:10587000435D02AA9B00D358002B2CD0002E04D0ED
:10588000009A934201D24B469B1A0026FF184346CA
:105890004A469B1ABB42E9D280215846090111436E
:1058A000404400F0C3FA804443464A469B1ABB4238
:1058B000DCD200204D4B9D44F0BCBB46B246A9460D
:1058C000A046F0BD964200D185E0013267E762450F
:1058D0007ED0013285E75346B24506D2330004E05C
:1058E000E15CC25C91421BD10133AB42F8D3534619
:1058F000D446013BB24504D809E05A1EB34213D046
:1059000013005A1C9446E15CC25C9142F5D001360A
:105910006645CFD8009B4A469C46D61A6744B6E7F0
:10592000019A94466744B0E7B446F0E75346F31A49
:1059300053454BD301335246019301239B1A0093E5
:1059400080231B01994633000027464698465B4654
:10595000D819435D02AA9B00D358002B18D0DF1939
:105960004346F31A9F42F2D95B464946981943468B
:10597000194300F05BFA43463618F31A9F4298D851
:105980005B46D819435D02AA9B00D358002BE6D191
:105990005346AA4503D30AE00133AB4207D2E15C88
:1059A000C25C9142F8D0009A94466744D7E75346C8
:1059B000013B03D27EE7013B00D27BE7E15CC25CA6
:1059C0009142F8D0019B9C466744C9E75346B1E732
:1059D0008918012205E701228919E0E601230093D5
:1059E00000239A4618E7C046F4FBFFFF0C040000B2
:1059F000F0B5CE46474680B50E0009780500040094
:105A000091B0002958D07278002A00D18BE0B0788C
:105A1000002857D013020B4307041F43F3789C461A
:105A20001B063B436746002F00D182E03279002AF3
:105A300058D03000FFF76AFE80218900070001433B
:105A4000280000F0F3F987425DD8FE2F00D983E0EB
:105A5000C01B804640226846791CA844FFF764FBBF
:105A6000002F0FD0BA1994463F2233009146F8B266
:105A7000301849466C461A780A40C11A0133A154BD
:105A80006345F6D12C003F256A46013CE35D2B407F
:105A9000D35CE418A04503D237E04C44A04534D38E
:105AA0006A46E35D31002B40D35C20003A00994602
:105AB00000F0E2F90028F0D1200011B0C0BCB946D6
:105AC000B046F0BD0904114300232A7800E0050028
:105AD000002A18D01B041343681C6A789942F6D137
